:100000000C94B5000C94D2000C945B050C94B305D1
:100010000C940B060C94D2000C94D2000C94D200D9
:100020000C94D2000C94D2000C94D2000C94D20008
:100030000C94D2000C94D2000C94D2000C94D200F8
:100040000C94D2000C94D2000C94D2000C94D200E8
:100050000C94D2000C94D2000C94D2000C94D200D8
:100060000C94D2000C94D2006E616E00696E660032
:1000700000407A10F35A00A0724E18090010A5D45F
:10008000E80000E87648170000E40B54020000CABC
:100090009A3B000000E1F505000080969800000002
:1000A00040420F000000A086010000001027000061
:1000B0000000E803000000006400000000000A00E7
:1000C000000000000100000000002C76D888DC67EA
:1000D0004F0823DFC1DFAE59E1B1B796E5E3E45342
:1000E000C63AE651997696E8E6C28426EB898C9B5F
:1000F00062ED407C6FFCEFBC9C9F40F2BAA56FA5FF
:10010000F490055A2AF75C936B6CF9676DC11BFC80
:10011000E0E40D47FEF520E6B500D0ED902E03009B
:10012000943577050080841E080000204E0A0000E8
:1001300000C80C333333330F986E12831141EF8DA7
:100140002114893BE65516CFFEE6DB18D1844B38E7
:100150001BF77C1D901DA4BBE424203284725E2218
:100160008100C9F124ECA1E53D2711241FBECFEF8A
:10017000D8E0DEBFCDBF11E0A0E0B1E0EAE6F6E1F5
:1001800002C005900D92A233B107D9F721E0A2E396
:10019000B1E001C01D92A334B207E1F70E949604BA
:1001A0000C94330B0C940000AFE0B0E0EAEDF0E00B
:1001B0000C943E096C011B015A01FC011782168246
:1001C000838181FF48C39E012F5F3F4F4901F601A4
:1001D0009381F10193FD859193FF81911F01882304
:1001E00009F4E7C2853239F493FD859193FF81913B
:1001F0001F01853239F4B60190E00E94750A35017D
:100200005301E5CFF12C512C00E0003238F48B3251
:1002100009F190F48032F9F0833209F107FD34C01E
:1002200020ED280F2A3020F506FF1BC0FAE0FF9EC4
:10023000200D1124F22E05C08D3279F0803371F734
:100240000160F10193FD859193FF81911F0181115F
:10025000DCCF1AC002600460F4CF0860F2CF006106
:10026000F0CF3AE0539E200D1124522E0062E9CFC8
:100270008E3221F406FD9DC20064E3CF8C3611F46A
:100280000068DFCF8836E9F29BEB980F933008F0D7
:100290005FC00061805E06FD02C046E0F42E102FB4
:1002A0001F73853609F05BC0106417FF61C08F2D86
:1002B0009BE39F1508F48BE344244394480E27E006
:1002C0003501F4E06F0E711CF5016081718182814E
:1002D0009381042DA4010E9475095C01F981FC87BA
:1002E000F0FF03C00DE2F3FF07C00BE211FD04C0F5
:1002F000012F047012FD00E22C852C70E22E09F40F
:1003000057C00111ABC2F3E0E12CF515A0F483E076
:10031000E52CE81A13FD08C0B60180E290E00E94C7
:10032000750AEA94E110F8CF002329F0B601802F76
:1003300090E00E94750A3C8528E6A22E20E0B22EAD
:1003400033FD04C09CE6A92E90E0B92E107122C0A6
:100350009BE9980F933008F033C10F7E9CCF86360F
:1003600011F41068A2CFFF2009F49FCFFA949DCF1B
:10037000E7E02F2DEF1518F427E037E0F32E412C9E
:100380009FCF11118052B60190E00E94750A8FEF45
:10039000A81AB80AF50184918111F3CFEE2009F46F
:1003A0002FCFB60180E290E00E94750AEA94F6CF62
:1003B00017FF6FC04A0CFC85F4FF04C08A818133AB
:1003C00009F44A9414140CF086C028E0241510F4A3
:1003D00088E0482E85E090E017FF06C0C501B7FE13
:1003E00002C090E080E0019601110196FF2031F0FB
:1003F0002F2D30E02F5F3F4F820F931F58161906A5
:1004000019F014F0E52CE81A812F897011F4E1102D
:1004100067C0002329F0B601802F90E00E94750A82
:1004200013FD02C0E11063C017FF7CC08501B7FE59
:1004300002C010E000E0C501841991092C016F2D64
:1004400070E0EE27FF27E61BF70BFF87EE870F3FD5
:10045000100729F4B6018EE290E00E94750AA016FA
:10046000B1060CF44BC0401651060CF047C0F50124
:10047000E01BF10BE80DF91D8181015011092E855A
:100480003F8502171307E4F1B60190E00E94750A58
:10049000DECF16FD9FCFEF2DF0E0EA15FB0534F01F
:1004A0003CEFA3163FEFB3060CF010683296E80D50
:1004B000F91D01C0FA94FF2019F082918033D1F325
:1004C00017FF88CF442443944F0CFA141B0431F0D7
:1004D0002CF0FA187FCF442443947CCFF12C7ACFB0
:1004E000B60180E290E00E94750AEA9490CFB601CE
:1004F00080E390E00E94750AEA9494CF80E3BDCF38
:10050000A016B10641F49A81963350F4953319F44C
:100510003C8534FF05C0B60190E00E94750A3ECFCD
:1005200081E3F9CF8A81813319F09C859F7E9C8776
:10053000B60190E00E94750AFF20A9F0B6018EE294
:1005400090E00E94750AF394F394E2E001E00E0F4C
:10055000E80DF92DF11D8081B60190E00E94750A29
:10056000E02F0F11F3CF85E690E014FF02C085E481
:1005700090E0B6010E94750AB7FC06C0A114B10450
:10058000C1F4EC85E4FF15C0B194A194B1088DE2EB
:10059000B60190E00E94750A80E32AE0A216B10439
:1005A00054F4B60190E00E94750AB601C501C096E8
:1005B000B4CF8BE2EDCF8F5FFAE0AF1AB108EDCF89
:1005C0008336C9F0833771F1833509F05BC035019B
:1005D000F2E06F0E711CF501A080B1806F2D70E00C
:1005E00006FD02C06FEF7FEFC5010E944D0A9D8797
:1005F0008C8700680DC0350132E0630E711CF50177
:100600008081898321E030E03D872C8754010F777A
:1006100003FD06C02C853D855216130609F0A8F48B
:10062000E52C2BC0350132E0630E711CF501A08072
:10063000B1806F2D70E006FD02C06FEF7FEFC50146
:100640000E94580A9D878C87E2CFB60180E290E035
:100650000E94750A5A94DECFF50107FD859107FFC8
:1006600081915F01B60190E00E94750AE110EA9461
:100670008C859D8501979D878C87EC85FD85EF2B6B
:1006800059F78CCE843619F0893609F074C03501DB
:1006900007FF66C0F4E06F0E711CF5016081718187
:1006A00082819381102F1F7697FF08C090958095C7
:1006B000709561957F4F8F4F9F4F10682AE030E013
:1006C000A4010E94D50AA82EA818BA2C012F16FF43
:1006D0000AC00E7FAF1438F414FF04C012FD02C02C
:1006E000012F0E7EBF2C04FF8EC0FE01EA0DF11D0E
:1006F0008081803309F080C0097EF02FF870EF2EE2
:1007000003FD90C000FF8AC0FA2CB51410F4F50C5C
:10071000FB1804FF8DC0B60180E390E00E94750ACB
:1007200002FF09C088E790E001FF02C088E590E081
:10073000B6010E94750AAF1408F486C0AA940A2D67
:1007400010E00F5F1F4F080D191DF80182918F01F6
:10075000B60190E00E94750A80169106B1F71ECE90
:10076000F2E06F0E711CF50160817181072E000CA3
:10077000880B990B97CF102F8537A9F41F7E2AE09D
:1007800030E0350117FF2FC0F4E06F0E711CF5014A
:100790006081718182819381A4010E94D50AA82E73
:1007A000A8181F7792CF197F8F36D1F048F488357B
:1007B00091F0F601868197812F96E2E10C945A0917
:1007C000803739F08837A9F714FD146020E130E054
:1007D000D8CF1061F9CF04FD166020E132E0D1CF0F
:1007E00028E030E0CECFF2E06F0E711CF5016081A1
:1007F000718190E080E0D0CF02FD02C0B3947DCF44
:10080000B394B3947ACF802F867809F476CFF6CF5D
:10081000B60180E290E00E94750AB394B514C0F36B
:10082000E12C77CFE52CEB18B51408F472CFF8CF94
:10083000802F867809F47FCF8BE201FF80E207FDED
:100840008DE2B60190E075CFB60180E390E00E94A2
:10085000750AFA9470CF8FEF9FEFAECF24E0E12CB2
:10086000251508F063CD84E053CDEAE7F0E09081F0
:1008700090689083883791F0EAE7F0E09081906487
:100880009083908196FDFDCF609178007091790002
:10089000883799F060E070E0CB010895ECE7F0E074
:1008A00090819E7F908390819D7F908390819B7F9C
:1008B00090839081977F9083DFCFCB0182509240CD
:1008C0008E3F21E0920770F5BC01072E000C880BCB
:1008D000990B0E94450820E030E84EEF53E40E9457
:1008E0009B0720E030E048EC52E40E94D1080E94CF
:1008F0000D08072E000C880B990B0E9445082FE16C
:1009000035E84BE25FE30E94D10820E030E048EC9C
:1009100052E40E949B0720E030E040E85FE30E9441
:100920002F07089560E070E0CB0108950E94EF0664
:1009300080E091E0909342018093410183E08093B5
:100940007E0087E880937A00ECE7F0E080818064A5
:100950008083229A2A982098289A23982B9A249860
:100960002C9A3A98429A53985B9A80E890E7909331
:1009700087008093860080E498E390938B008093B7
:100980008A00E0E8F0E0808180628083E1E8F0E0C6
:10099000808184618083E9E6F0E0808188608083E3
:1009A000E99AEBE6F0E0808188618083E8E6F0E098
:1009B000808181608083ACE6B0E08C9184608C9310
:1009C0008081826080830F2EF6E8CF2ED12CF02D0F
:1009D0000F2EFAE8EF2EF12CF02D0EE011E0CDE312
:1009E000D1E045C018995BC01092350110923401D6
:1009F000109233011092320120913B0130913C0161
:100A0000F601318320832091340130913501F701C3
:100A10003183208320913201309133013F932F9312
:100A20009F938F937F936F931F930F938D818F93DA
:100A30008C818F930E94630AFFEF2FEF88E0F150C3
:100A400020408040E1F700C000002C813D8142E061
:100A500050E061E070E08EE291E00E94A50AEDB7FF
:100A6000FEB73A960FB6F894FEBF0FBEEDBF88E70B
:100A70000E9435049B01AC0160E070E081EE96E4D9
:100A80000E949B070E940D0870933C0160933B01FC
:100A900088E70E9435044B99A5CF7894ADCF1B9978
:100AA00002C07894A9CF1C9902C07894A5CF32993E
:100AB000A3CF7894A1CF1F920F920FB60F9211245B
:100AC000CF92DF92EF92FF922F933F934F935F93DA
:100AD0006F937F938F939F93AF93BF93EF93FF9306
:100AE00080E090E0A0E8BEE3809337019093380166
:100AF000A0933901B0933A0189E190E090933301DA
:100B00008093320160913B0170913C01C0903701AC
:100B1000D0903801E0903901F0903A01072E000C96
:100B2000880B990B0E944508A70196010E94D108E5
:100B30000E940D087093350160933401FF91EF918D
:100B4000BF91AF919F918F917F916F915F914F91E5
:100B50003F912F91FF90EF90DF90CF900F900FBEBD
:100B60000F901F9018951F920F920FB60F9211249D
:100B7000CF92DF92EF92FF922F933F934F935F9329
:100B80006F937F938F939F93AF93BF93EF93FF9355
:100B900080E090E0A0E0BFE38093370190933801BC
:100BA000A0933901B0933A0182E390E0909333012E
:100BB0008093320160913B0170913C01C0903701FC
:100BC000D0903801E0903901F0903A01072E000CE6
:100BD000880B990B0E944508A70196010E94D10835
:100BE0000E940D087093350160933401FF91EF91DD
:100BF000BF91AF919F918F917F916F915F914F9135
:100C00003F912F91FF90EF90DF90CF900F900FBE0C
:100C10000F901F9018951F920F920FB60F921124EC
:100C2000CF92DF92EF92FF922F933F934F935F9378
:100C30006F937F938F939F93AF93BF93EF93FF93A4
:100C400080E090E0A0E8BFE3809337019093380103
:100C5000A0933901B0933A0184E690E09093330178
:100C60008093320160913B0170913C01C09037014B
:100C7000D0903801E0903901F0903A01072E000C35
:100C8000880B990B0E944508A70196010E94D10884
:100C90000E940D087093350160933401FF91EF912C
:100CA000BF91AF919F918F917F916F915F914F9184
:100CB0003F912F91FF90EF90DF90CF900F900FBE5C
:100CC0000F901F9018955998611111C058989BB1B9
:100CD0009F7040E1849F90011124892F822B8BB952
:100CE0005A9A82E08A95F1F700C05A980895589A66
:100CF000EECF599A9AB19F709AB981110FC0589846
:100D00005A9A82E08A95F1F700C089B15A989AB14F
:100D1000906F9AB9599882958F700895589AF0CF2C
:100D2000CF93DF93C82FD62F82958F700E946306D2
:100D30006D2F8C2F8F700E946306DF91CF910895E5
:100D4000CF93DF93C82F0E947906D82FD295D07FFA
:100D50008C2F0E9479068D2BDF91CF91089580E032
:100D60000E94A0068823DCF30895509A519A529A63
:100D70008AB1806F8AB98FEF97ED0197F1F700C0C4
:100D8000000060E083E00E9463068AE09BE3019735
:100D9000F1F760E083E00E94630680E791E001974D
:100DA000F1F700C060E083E00E94630696EB9A953D
:100DB000F1F760E082E00E94630680E00E94AF06E7
:100DC00060E088E20E94900680E00E94AF0660E04A
:100DD00088E00E94900680E00E94AF0608950E947D
:100DE000B50660E081E00E94900681E00E94AF06B7
:100DF00060E086E00E94900680E00E94AF0660E01E
:100E00008EE00E94900680E00E94AF060895CF9386
:100E1000C82F80913601811111C0CB3139F481E0A6
:100E20008093360190E080E0CF91089580E00E94A9
:100E3000AF0661E08C2F0E949006F4CF80E00E9404
:100E4000AF0660E08C2F0E949006C43018F010921C
:100E50003601E8CF81E00E94AF06F9CF5058BB279A
:100E6000AA270E9446070C9497080E94890838F028
:100E70000E94900820F039F49F3F19F426F40C9456
:100E800086080EF4E095E7FB0C948008E92F0E9499
:100E9000A80858F3BA17620773078407950720F06C
:100EA00079F4A6F50C94CA080EF4E0950B2EBA2F2F
:100EB000A02D0B01B90190010C01CA01A001112460
:100EC000FF27591B99F0593F50F4503E68F11A160C
:100ED000F040A22F232F342F4427585FF3CF46959D
:100EE00037952795A795F0405395C9F77EF41F16BF
:100EF000BA0B620B730B840BBAF09150A1F0FF0F89
:100F0000BB1F661F771F881FC2F70EC0BA0F621F74
:100F1000731F841F48F4879577956795B795F79564
:100F20009E3F08F0B0CF9395880F08F09927EE0FF9
:100F30009795879508950E94AF070C9497080E9493
:100F4000900858F00E94890840F029F45F3F29F08A
:100F50000C94800851110C94CB080C9486080E94C4
:100F6000A80868F39923B1F3552391F3951B550B0A
:100F7000BB27AA2762177307840738F09F5F5F4F6C
:100F8000220F331F441FAA1FA9F335D00E2E3AF0AB
:100F9000E0E832D091505040E695001CCAF72BD0C3
:100FA000FE2F29D0660F771F881FBB1F2617370714
:100FB0004807AB07B0E809F0BB0B802DBF01FF2746
:100FC00093585F4F3AF09E3F510578F00C9480089B
:100FD0000C94CB085F3FE4F3983ED4F38695779565
:100FE0006795B795F7959F5FC9F7880F911D9695FF
:100FF000879597F90895E1E0660F771F881FBB1F5B
:10100000621773078407BA0720F0621B730B840B07
:10101000BA0BEE1F88F7E09508950E9414086894B3
:10102000B1110C94CB0808950E94B00888F09F5726
:1010300098F0B92F9927B751B0F0E1F0660F771FFC
:10104000881F991F1AF0BA95C9F714C0B13091F0F2
:101050000E94CA08B1E008950C94CA08672F782F3F
:101060008827B85F39F0B93FCCF3869577956795B7
:10107000B395D9F73EF490958095709561957F4F23
:101080008F4F9F4F0895E89409C097FB3EF49095C9
:101090008095709561957F4F8F4F9F4F9923A9F051
:1010A000F92F96E9BB279395F695879577956795E0
:1010B000B795F111F8CFFAF4BB0F11F460FF1BC024
:1010C0006F5F7F4F8F4F9F4F16C0882311F096E9B7
:1010D00011C0772321F09EE8872F762F05C0662365
:1010E00071F096E8862F70E060E02AF09A95660F1E
:1010F000771F881FDAF7880F9695879597F90895D7
:1011000097F99F6780E870E060E008959FEF80ECBA
:10111000089500240A94161617061806090608955D
:1011200000240A9412161306140605060895092EC3
:101130000394000C11F4882352F0BB0F40F4BF2B32
:1011400011F460FF04C06F5F7F4F8F4F9F4F089572
:1011500057FD9058440F551F59F05F3F71F0479568
:10116000880F97FB991F61F09F3F79F0879508954D
:10117000121613061406551FF2CF4695F1DF08C06C
:10118000161617061806991FF1CF86957105610589
:1011900008940895E894BB2766277727CB0197F931
:1011A00008950E94E4080C9497080E94890838F07A
:1011B0000E94900820F0952311F00C9480080C9464
:1011C000860811240C94CB080E94A80870F3959F00
:1011D000C1F3950F50E0551F629FF001729FBB272E
:1011E000F00DB11D639FAA27F00DB11DAA1F649FCA
:1011F0006627B00DA11D661F829F2227B00DA11D7D
:10120000621F739FB00DA11D621F839FA00D611D02
:10121000221F749F3327A00D611D231F849F600D23
:10122000211D822F762F6A2F11249F5750409AF04C
:10123000F1F088234AF0EE0FFF1FBB1F661F771FD8
:10124000881F91505040A9F79E3F510580F00C94A3
:1012500080080C94CB085F3FE4F3983ED4F3869566
:1012600077956795B795F795E7959F5FC1F7FE2B43
:10127000880F911D9695879597F908952F923F9223
:101280004F925F926F927F928F929F92AF92BF9296
:10129000CF92DF92EF92FF920F931F93CF93DF9342
:1012A000CDB7DEB7CA1BDB0B0FB6F894DEBF0FBE9F
:1012B000CDBF09942A88398848885F846E847D84EC
:1012C0008C849B84AA84B984C884DF80EE80FD80EE
:1012D0000C811B81AA81B981CE0FD11D0FB6F89464
:1012E000DEBF0FBECDBFED010895283008F027E026
:1012F0003327DA01990F311D87FD91600096610552
:10130000710539F432602E5F3D9330E32A95E1F7A1
:1013100008959F3F30F080387105610509F03C5F0A
:101320003C5F3D93913008F08068911DDF93CF932F
:101330001F930F93FF92EF92192F987F9695E92FA5
:1013400096959695E90FFF27E653FF4F9927332788
:10135000EE24FF24A701E70105900894079428F4E0
:10136000360FE71EF81E491F511D660F771F881F95
:10137000991F0694A1F70590079428F4E70EF81E2C
:10138000491F561FC11D770F881F991F661F06949E
:10139000A1F70590079428F4F80E491F561FC71FA0
:1013A000D11D880F991F661F771F0694A1F705901E
:1013B000079420F4490F561FC71FD81F990F661FA7
:1013C000771F881F0694A9F784911095177041F034
:1013D000D695C79557954795F794E7941A95C1F711
:1013E000E0E7F0E06894159015913591659195913D
:1013F00005907FE27395E118F10A430B560BC90B78
:10140000D009C0F7E10CF11E431F561FC91FD01DA4
:101410007EF4703311F48A95E6CFE894015030F0F1
:10142000080F0AF40027021708F4202F2395022F33
:101430007A3328F079E37D932A95E9F710C07D93FC
:101440002A9589F606949795679537951795179479
:10145000E118F10A430B560BC90BD00998F02395FC
:101460007E9173957A3308F070E37C932013B8F77C
:101470007E9170617D9330F0839571E37D9370E38D
:101480002A95E1F71124EF90FF900F911F91CF91D2
:10149000DF91992787FD90950895FC010590615093
:1014A00070400110D8F7809590958E0F9F1F08957A
:1014B000FC016150704001900110D8F78095909523
:1014C0008E0F9F1F0895B0E0A0E0E9E6FAE00C94CB
:1014D0004E09AE01475F5F4F6F8178858D819E8198
:1014E0000E94D400E2E00C946A090F931F93CF93FB
:1014F000DF93182F092FEB018B8181FD09C01FEFAE
:101500000FEF812F902FDF91CF911F910F910895B1
:1015100082FF14C02E813F818C819D81281739075D
:101520003CF4E881F981CF01019699838883108387
:101530008E819F8101969F838E83E3CFE885F98515
:10154000812F0995892BA1F3DACFB0E0A0E0EBEA77
:10155000FAE00C9444095B014A017901D901139620
:101560002C91D0E0C0E021FF1AC0C815D905B9F010
:101570008C016C01CA0CDB1C0CC00F5F1F4FD70124
:101580001896ED91FC91B701DC018C910995892B9E
:1015900031F4C8010C151D0581F72196E6CFCE0167
:1015A000CDB7DEB7ECE00C946009FA01AA27283029
:1015B00051F1203181F1E8946F936E7F6E5F7F4F20
:1015C0008F4F9F4FAF4FB1E03ED0B4E03CD0670F9C
:1015D000781F891F9A1FA11D680F791F8A1F911DEF
:1015E000A11D6A0F711D811D911DA11D20D009F43F
:1015F00068943F912AE0269F11243019305D319381
:10160000DEF6CF010895462F4770405D4193B3E069
:101610000FD0C9F7F6CF462F4F70405D4A3318F010
:10162000495D31FD4052419302D0A9F7EACFB4E0C1
:10163000A6959795879577956795BA95C9F7009779
:101640006105710508959B01AC010A2E069457951A
:10165000479537952795BA95C9F7620F731F841F71
:0A166000951FA01D0895F894FFCF18
:10166A0000000002000000000707000000002050F0
:10167A00574D2047656E657261746F721BC0252EC7
:10168A00326620487A2020202025642525001B0167
:02169A0000004E
:00000001FF
